{
  "contractName": "ERC20Simple",
  "abi": [
    {
      "anonymous": false,
      "inputs": [
        {
          "indexed": true,
          "internalType": "address",
          "name": "_owner",
          "type": "address"
        },
        {
          "indexed": true,
          "internalType": "address",
          "name": "_spender",
          "type": "address"
        },
        {
          "indexed": false,
          "internalType": "uint256",
          "name": "_value",
          "type": "uint256"
        }
      ],
      "name": "Approval",
      "type": "event"
    },
    {
      "anonymous": false,
      "inputs": [
        {
          "indexed": true,
          "internalType": "address",
          "name": "_from",
          "type": "address"
        },
        {
          "indexed": true,
          "internalType": "address",
          "name": "_to",
          "type": "address"
        },
        {
          "indexed": false,
          "internalType": "uint256",
          "name": "_value",
          "type": "uint256"
        }
      ],
      "name": "Transfer",
      "type": "event"
    },
    {
      "inputs": [],
      "name": "totalSupply",
      "outputs": [
        {
          "internalType": "uint256",
          "name": "",
          "type": "uint256"
        }
      ],
      "stateMutability": "view",
      "type": "function"
    },
    {
      "inputs": [
        {
          "internalType": "address",
          "name": "_owner",
          "type": "address"
        }
      ],
      "name": "balanceOf",
      "outputs": [
        {
          "internalType": "uint256",
          "name": "",
          "type": "uint256"
        }
      ],
      "stateMutability": "view",
      "type": "function"
    },
    {
      "inputs": [
        {
          "internalType": "address",
          "name": "_to",
          "type": "address"
        },
        {
          "internalType": "uint256",
          "name": "_value",
          "type": "uint256"
        }
      ],
      "name": "transfer",
      "outputs": [
        {
          "internalType": "bool",
          "name": "",
          "type": "bool"
        }
      ],
      "stateMutability": "nonpayable",
      "type": "function"
    },
    {
      "inputs": [
        {
          "internalType": "address",
          "name": "_from",
          "type": "address"
        },
        {
          "internalType": "address",
          "name": "_to",
          "type": "address"
        },
        {
          "internalType": "uint256",
          "name": "_value",
          "type": "uint256"
        }
      ],
      "name": "transferFrom",
      "outputs": [
        {
          "internalType": "bool",
          "name": "",
          "type": "bool"
        }
      ],
      "stateMutability": "nonpayable",
      "type": "function"
    },
    {
      "inputs": [
        {
          "internalType": "address",
          "name": "_spender",
          "type": "address"
        },
        {
          "internalType": "uint256",
          "name": "_value",
          "type": "uint256"
        }
      ],
      "name": "approve",
      "outputs": [
        {
          "internalType": "bool",
          "name": "",
          "type": "bool"
        }
      ],
      "stateMutability": "nonpayable",
      "type": "function"
    },
    {
      "inputs": [
        {
          "internalType": "address",
          "name": "_owner",
          "type": "address"
        },
        {
          "internalType": "address",
          "name": "_spender",
          "type": "address"
        }
      ],
      "name": "allowance",
      "outputs": [
        {
          "internalType": "uint256",
          "name": "",
          "type": "uint256"
        }
      ],
      "stateMutability": "view",
      "type": "function"
    }
  ],
  "bytecode": "0x608060405234801561001057600080fd5b50610304806100206000396000f3fe608060405234801561001057600080fd5b50600436106100625760003560e01c8063095ea7b31461006757806318160ddd146100cb57806323b872dd146100e957806370a082311461016d578063a9059cbb146101c5578063dd62ed3e14610229575b600080fd5b6100b36004803603604081101561007d57600080fd5b81019080803573ffffffffffffffffffffffffffffffffffffffff169060200190929190803590602001909291905050506102a1565b60405180821515815260200191505060405180910390f35b6100d36102a9565b6040518082815260200191505060405180910390f35b610155600480360360608110156100ff57600080fd5b81019080803573ffffffffffffffffffffffffffffffffffffffff169060200190929190803573ffffffffffffffffffffffffffffffffffffffff169060200190929190803590602001909291905050506102ae565b60405180821515815260200191505060405180910390f35b6101af6004803603602081101561018357600080fd5b81019080803573ffffffffffffffffffffffffffffffffffffffff1690602001909291905050506102b7565b6040518082815260200191505060405180910390f35b610211600480360360408110156101db57600080fd5b81019080803573ffffffffffffffffffffffffffffffffffffffff169060200190929190803590602001909291905050506102be565b60405180821515815260200191505060405180910390f35b61028b6004803603604081101561023f57600080fd5b81019080803573ffffffffffffffffffffffffffffffffffffffff169060200190929190803573ffffffffffffffffffffffffffffffffffffffff1690602001909291905050506102c6565b6040518082815260200191505060405180910390f35b600092915050565b600090565b60009392505050565b6000919050565b600092915050565b60009291505056fea2646970667358221220caf958476c5e9d8829fa3b2b51ca0dc94b06ee7557d273067b7e83af9d5d032264736f6c634300060c0033",
  "immutableReferences": {},
  "source": "// pragma solidity ^0.4.20;\r\npragma solidity >=0.4.0 <0.7.0;\r\n\r\ncontract ERC20Simple {\r\n    function totalSupply() external virtual view returns (uint256) {}\r\n\r\n    function balanceOf(address _owner) public virtual view returns (uint256) {}\r\n\r\n    function transfer(address _to, uint256 _value)\r\n        public\r\n        virtual\r\n        returns (bool)\r\n    {}\r\n\r\n    function transferFrom(\r\n        address _from,\r\n        address _to,\r\n        uint256 _value\r\n    ) public virtual returns (bool) {}\r\n\r\n    function approve(address _spender, uint256 _value)\r\n        public\r\n        virtual\r\n        returns (bool)\r\n    {}\r\n\r\n    function allowance(address _owner, address _spender)\r\n        public\r\n        virtual\r\n        view\r\n        returns (uint256)\r\n    {}\r\n\r\n    event Transfer(address indexed _from, address indexed _to, uint256 _value);\r\n    event Approval(\r\n        address indexed _owner,\r\n        address indexed _spender,\r\n        uint256 _value\r\n    );\r\n}\r\n\r\ncontract StandardToken is ERC20Simple {\r\n    function transfer(address _to, uint256 _value)\r\n        public\r\n        override\r\n        returns (bool success)\r\n    {\r\n        if (balances[msg.sender] >= _value && _value > 0) {\r\n            balances[msg.sender] -= _value;\r\n            balances[_to] += _value;\r\n            emit Transfer(msg.sender, _to, _value);\r\n            return true;\r\n        } else {\r\n            return false;\r\n        }\r\n    }\r\n\r\n    function transferFrom(\r\n        address _from,\r\n        address _to,\r\n        uint256 _value\r\n    ) public override returns (bool success) {\r\n        if (\r\n            balances[_from] >= _value &&\r\n            allowed[_from][msg.sender] >= _value &&\r\n            _value > 0\r\n        ) {\r\n            balances[_to] += _value;\r\n            balances[_from] -= _value;\r\n            allowed[_from][msg.sender] -= _value;\r\n            emit Transfer(_from, _to, _value);\r\n            return true;\r\n        } else {\r\n            return false;\r\n        }\r\n    }\r\n\r\n    function balanceOf(address _owner)\r\n        public\r\n        override\r\n        view\r\n        returns (uint256 balance)\r\n    {\r\n        return balances[_owner];\r\n    }\r\n\r\n    function approve(address _spender, uint256 _value)\r\n        public\r\n        override\r\n        returns (bool success)\r\n    {\r\n        allowed[msg.sender][_spender] = _value;\r\n        emit Approval(msg.sender, _spender, _value);\r\n        return true;\r\n    }\r\n\r\n    function allowance(address _owner, address _spender)\r\n        public\r\n        override\r\n        view\r\n        returns (uint256 remaining)\r\n    {\r\n        return allowed[_owner][_spender];\r\n    }\r\n\r\n    mapping(address => uint256) balances;\r\n    mapping(address => mapping(address => uint256)) allowed;\r\n    uint256 public override totalSupply;\r\n}\r\n\r\ncontract BSEToken is StandardToken {\r\n    fallback() external {\r\n        //if ether is sent to this address, send it back.\r\n        revert(\"Process Reverted Back\");\r\n    }\r\n\r\n    /* Public variables of the token */\r\n    string public name;\r\n    uint8 public decimals;\r\n    string public symbol;\r\n    string public version = \"BSEToken 1.0\";\r\n\r\n    function ERC20Token() public {\r\n        balances[msg.sender] = 1000000000000000000; // Give the creator all initial tokens (100000 for example)\r\n        totalSupply = 100000; // Update total supply (100000 for example)\r\n        name = \"BSEToken\"; // Set the name for display purposes\r\n        decimals = 6; // Amount of decimals for display purposes\r\n        symbol = \"BSETok\"; // Set the symbol for display purposes\r\n    }\r\n\r\n    /* Approves and then calls the receiving contract */\r\n    function approveAndCall(\r\n        address _spender,\r\n        uint256 _value,\r\n        bytes memory _extraData\r\n    ) public returns (bool success) {\r\n        allowed[msg.sender][_spender] = _value;\r\n        emit Approval(msg.sender, _spender, _value);\r\n        // if (!_spender.call(bytes4(bytes32(keccak256(\"receiveApproval(address,uint256,address,bytes)\"))),msg.sender,  _value,this, _extraData)\r\n        // )\r\n        // {\r\n        //     revert();\r\n        // }\r\n\r\n        //Above commented statements have been converted because '!' wasnt supported\r\n        (bool successCall, ) = _spender.call(\r\n            abi.encode(\r\n                bytes4(\r\n                    bytes32(\r\n                        keccak256(\r\n                            \"receiveApproval(address,uint256,address,bytes)\"\r\n                        )\r\n                    )\r\n                ),\r\n                msg.sender,\r\n                _value,\r\n                this,\r\n                _extraData\r\n            )\r\n        );\r\n        require(successCall, \"Process reverted back\");\r\n        return true;\r\n    }\r\n}\r\n",
  "sourcePath": "C:\\Users\\My1\\Desktop\\BSE\\Blockchain\\ForToken\\contracts\\bsetokenremix.sol",
  "compiler": {
    "name": "solc",
    "version": "0.6.12+commit.27d51765.Emscripten.clang"
  },
  "schemaVersion": "3.2.2",
  "updatedAt": "2020-07-23T09:51:08.664Z",
  "devdoc": {
    "kind": "dev",
    "methods": {},
    "version": 1
  },
  "userdoc": {
    "kind": "user",
    "methods": {},
    "version": 1
  }
}